:100000000C9434000C9449000C9449000C94490061
:100010000C9449000C9492000C9449000C944900F3
:100020000C9449000C9449000C9449000C9449002C
:100030000C9449000C9449000C9449000C9449001C
:100040000C9449000C9449000C9449000C9449000C
:100050000C9449000C9449000C9449000C944900FC
:100060000C9449000C94490011241FBECFEFD8E036
:10007000DEBFCDBF11E0A0E0B1E0E4EBF1E002C0F3
:1000800005900D92A033B107D9F70E9475000C942A
:10009000D8000C9400008AB182608AB98AB18E7F40
:1000A0008AB982E08093C00088E98093C10086E02D
:1000B0008093C20080E190E09093C5008093C400DB
:1000C00008958AB183708AB98BB18C6F8BB90E9405
:1000D0004B00E8E6F0E0808184608083EDE6F0E0AC
:1000E00080818C6F8083789408950E946100FFCF97
:1000F0009091C00095FFFCCF8093C60008950F93A8
:100100001F93CF938C01C0E003C00E947800CF5FA3
:10011000F801EC0FF11D80818111F7CFCF911F9174
:100120000F9108951F920F920FB60F9211242F93E3
:100130003F934F935F936F937F938F939F93AF936F
:10014000BF93EF93FF934A9904C080E091E00E942F
:100150007F004B9904C089E091E00E947F004C9998
:1001600004C081E191E00E947F004D9904C08BE1C1
:1001700091E00E947F004E9904C087E291E00E94C6
:100180007F004F9904C08BE291E00E947F00FF91B5
:10019000EF91BF91AF919F918F917F916F915F91FF
:1001A0004F913F912F910F900FBE0F901F90189578
:0401B000F894FFCFF1
:1001B4004172726962610D0A004162616A6F0D0ADF
:1001C40000446572656368610D0A00497A71756956
:1001D400657264610D0A00410D0A00420D0A0000B7
:00000001FF
