S00C00006C6162332E73726563B6
S11300000C943B000C9458000C9458000C94580029
S11300100C9458000C9458000C9458000C945800FC
S11300200C9458000C9458000C9458000C945800EC
S11300300C9458000C9458000C9458000C945800DC
S11300400C9458000C942F010C947E010C945800CD
S11300500C9458000C94E7000C9458000C9458002D
S11300600C9458000C9458000C0213021A02240237
S11300702E023802420211241FBECFEFD8E0DEBFA9
S1130080CDBF11E0A0E0B1E0E8EAF4E002C00590E1
S11300900D92A430B107D9F721E0A4E0B1E001C08A
S11300A01D92AB30B207E1F70E949E000C945202FD
S11300B00C940000ECE7F0E010828081806480837F
S11300C0808180628083808186608083EAE7F0E0BB
S11300D010828081806880838081886080838081B1
S11300E08360808380818064808308958AB1826084
S11300F08AB98AB18E7F8AB91092C00088E9809348
S1130100C10086E08093C20087E690E09093C5002A
S11301108093C4000895F8940E945A000E947600C7
S113012022E040E060E081E00E94C0018AB1846086
S11301308AB98BB18B7F8BB9789408950E948B0018
S1130140FFCF9091C00095FFFCCF8093C600089527
S11301500F931F93CF938C01C0E003C00E94A100B2
S1130160CF5FF801EC0FF11D80818111F7CFCF91A2
S11301701F910F910895FB0139E2839F312D1124C2
S113018032953F709DEC899F212D1124269526954B
S11301902695299F912D1124969596959695990FBC
S11301A0492F440F440F940F422F491B942F220FC1
S11301B0422F440F440F240F482F421B80E3830F28
S11301C08083905D9183405D4283138208951F92E2
S11301D00F920FB60F9211248F93EF93FF93809198
S11301E00001882341F010920001EAE7F0E08081E9
S11301F0806480832CC081E080930001809104019D
S1130200811110C08091790080930501ECE7F0E042
S11302108081807F808380818760808381E0809378
S1130220040110C0813071F480917900809306013B
S1130230ECE7F0E08081807F80838081866080832A
S113024010920401EAE7F0E0808180648083FF91EA
S1130250EF918F910F900FBE0F901F9018951F92E2
S11302600F920FB60F9211242F933F934F935F93E6
S11302706F937F938F939F93AF93BF93CF93EF939A
S1130280FF93CEB567E071E0809105010E94BB0049
S113029087E091E00E94A80080E20E94A10067E04C
S11302A071E0809106010E94BB0087E091E00E940A
S11302B0A80080E20E94A1008C2F0E94A10080E28D
S11302C00E94A100C13621F4809105018EBD04C0B5
S11302D0C23611F48FEF8EBDFF91EF91CF91BF9194
S11302E0AF919F918F917F916F915F914F913F91CA
S11302F02F910F900FBE0F901F9018951F920F9281
S11303000FB60F9211242F933F934F935F936F93E4
S11303107F938F939F93AF93BF93EF93FF938091BA
S1130320C6008133E1F467E071E0809105010E9429
S1130330BB0087E091E00E94A80081E091E00E9468
S1130340A80067E071E0809106010E94BB0087E08D
S113035091E00E94A80081E091E00E94A800FF9132
S1130360EF91BF91AF919F918F917F916F915F9129
S11303704F913F912F910F900FBE0F901F901895A2
S1130380813021F48CB580688CBD03C08CB58F7727
S11303908CBD613021F48CB580628CBD03C08CB5FA
S11303A08F7D8CBD413069F48CB580618CBD84B186
S11303B08F7E84B984B18C6284B985B18B6F85B921
S11303C009C08CB58F7E8CBD84B1806184B984B141
S11303D0837D84B9413009F05BC023FF04C08CB530
S11303E088608CBD03C08CB5877F8CBD24FF04C09E
S11303F08CB584608CBD03C08CB58B7F8CBDE22F23
S1130400E7708E2F90E08730910508F041C0FC0121
S1130410EC5CFF4F0C944C028DB581608DBD8CB5A6
S11304208C7F8CBD35C08DB58E7F8DBD8CB58C7F9A
S11304308CBD2EC08DB581608DBD8CB58D7F8CBD7E
S11304408CB581608CBD24C08DB58E7F8DBD8CB57F
S11304508D7F8CBD8CB581608CBD1AC08DB58160DB
S11304608DBD8CB58E7F8CBD8CB582608CBD10C06B
S11304708DB58E7F8DBD8CB58E7F8CBD8CB5826025
S11304808CBD06C08DB58E7F8DBD8CB583608CBD53
S11304908CB580648CBD0895EE0FFF1F0590F49118
S10B04A0E02D0994F894FFCF4C
S10704A8010A000041
S9030000FC
