S01500004C61626F7261746F72696F20322E737265633F
S11300000C9434000C9451000C9451000C94510045
S11300100C9451000C9451000C9451000C94510018
S11300200C9451000C9451000C9451000C94510008
S11300300C9451000C9451000C9451000C945100F8
S11300400C9451000C9451000C9468020C945100CF
S11300500C9451000C9420020C9451000C94510007
S11300600C9451000C94510011241FBECFEFD8E022
S1130070DEBFCDBF11E0A0E0B1E0EAE1F6E002C0EE
S113008005900D92A232B107D9F721E0A2E2B1E0C6
S113009001C01D92A033B207E1F70E94B8010C948D
S11300A00B030C9400009BB193709BB995B1937FA3
S11300B095B99BB1282F30E0220F331F220F331F35
S11300C0292B2BB925B1982F907C892F90E09595F9
S11300D08795959587959595879595958795822B81
S11300E085B9089595B19E7F95B90E94530085B155
S11300F0826085B98FE79EE30197F1F700C00000A5
S113010085B18D7F85B9089585B18E7F85B985B117
S11301108D7F85B92FEF89EF90E02150804090408A
S1130120E1F700C0000080E30E9472008FE19EE4CA
S11301300197F1F700C0000080E30E9472008FE194
S11301409EE40197F1F700C0000080E30E94720072
S11301508FE39CE90197F1F700C0000088E30E9457
S113016072008CE00E94720081E00E94720086E0BE
S11301700E9472000895811105C080E8860F0E94D4
S113018072000895813021F480EC860F0E94720081
S1130190089595B1916095B90E94530085B182602C
S11301A085B98FE99FE00197F1F700C0000085B1A0
S11301B08D7F85B98FE99FE00197F1F700C00000BA
S11301C008950F931F93CF93DF938C01C0E0D0E089
S11301D003C00E94C9002196F801EC0FFD1F808125
S11301E08111F7CFDF91CF911F910F910895ECE723
S11301F0F0E01082808180648083808180628083CB
S1130200808181608083EAE7F0E0108280818068E9
S11302108083808188608083808183608083808103
S1130220806480830895CF92DF92EF92FF92CF9300
S1130230DF93EB01282F30E0A4EFB1E00E94FC0231
S11302402FEF30E040E050E00E94DA0269017A01C9
S1130250F901F695E795F695E7959F01ABE7B4E1CB
S11302600E94FC02AC015695479524E6249FC001E8
S1130270259F900D1124C81AD90A405D48838EE247
S113028089838DECC89E812D11248695869586954B
S113029090E3980F9A83880F982F990F990F890FDD
S11302A09C2D981B892F805D8B8386E58C831D8212
S11302B0DF91CF91FF90EF90DF90CF900895FB01F5
S11302C039E2839F312D112432953F709DEC899F33
S11302D0212D1124269526952695299F912D1124AB
S11302E0969596959695990F492F440F440F940F20
S11302F0422F491B942F220F422F440F440F240FE7
S1130300482F421B80E3830F8083905D9183405D7F
S11303104283138208958AB182608AB98AB18E7F3A
S11303208AB91092C00088E98093C10086E0809366
S1130330C20087E690E09093C5008093C4000895BE
S1130340F8948CEF8AB91BB88FEF84B915B8109262
S113035023018FE0809324010E9484000E94F7000F
S11303600E948B0160E080E00E94BB0078940895B5
S11303700E94A00181E091E00E94E10065E271E049
S1130380809122010E94130185E291E00E94E10024
S11303902FEF89EF90E0215080409040E1F700C0BA
S11303A0000085E091E00E94E1006CE271E0809140
S11303B024010E945F018CE291E00E94E10060E070
S11303C081E00E94BB002FEF89EF90E02150804034
S11303D09040E1F700C000008AE091E00E94E10053
S11303E065E271E080912B010E94130185E291E0A6
S11303F00E94E1008EE091E00E94E1008FEA0E94F9
S1130400C90060E080E00E94BB00B4CF9091C000BE
S113041095FFFCCF8093C60008950F931F93CF934D
S11304208C01C0E003C00E940602CF5FF801EC0F0C
S1130430F11D80818111F7CFCF911F910F91089504
S11304401F920F920FB60F9211248F93EF93FF9385
S113045080910001882341F010920001EAE7F0E066
S11304608081806480832CC081E08093000180912E
S11304702301811110C08091790080932201ECE75F
S1130480F0E08081807F808380818260808381E04E
S11304908093230110C0813071F48091790080939E
S11304A02B01ECE7F0E08081807F80838081816094
S11304B0808310922301EAE7F0E0808180648083E6
S11304C0FF91EF918F910F900FBE0F901F90189591
S11304D01F920F920FB60F9211242F933F934F93B5
S11304E05F936F937F938F939F93AF93BF93EF9398
S11304F0FF938091C6008B3291F4809124018F5F29
S1130500809324016CE271E00E945F018CE291E02F
S11305100E940D0286E191E00E940D023AC08D32E4
S113052091F4809124018150809324016CE271E064
S11305300E945F018CE291E00E940D0286E191E04D
S11305400E940D0226C0813321F565E271E080919D
S113055022010E94130188E191E00E940D0285E2CC
S113056091E00E940D0286E191E00E940D0265E295
S113057071E080912B010E9413018DE191E00E94B2
S11305800D0285E291E00E940D0286E191E00E9455
S11305900D02FF91EF91BF91AF919F918F917F9148
S11305A06F915F914F913F912F910F900FBE0F90DC
S11305B01F901895A1E21A2EAA1BBB1BFD010DC0AA
S11305C0AA1FBB1FEE1FFF1FA217B307E407F507FF
S11305D020F0A21BB30BE40BF50B661F771F881FDB
S11305E0991F1A9469F760957095809590959B0171
S11305F0AC01BD01CF010895A29FB001B39FC0011A
S1130600A39F700D811D1124911DB29F700D811D3A
S10D06101124911D0895F894FFCF02
S113061A0153313A002053333A0053323A0020202E
S113062A202D476572000A0053313A200053323AAA
S105063A20009A
S9030000FC
