S00E0000736C617665322E73726563C9
S11300000C9434000C9451000C9451000C94510045
S11300100C94E5000C9451000C9451000C94510084
S11300200C9451000C9451000C9451000C94510008
S11300300C9451000C9451000C9451000C945100F8
S11300400C9451000C9451000C9451000C945100E8
S11300500C9451000C9451000C9451000C945100D8
S11300600C9439010C94510011241FBECFEFD8E039
S1130070DEBFCDBF11E0A0E0B1E0E8E8F3E002C0EC
S113008005900D92A030B107D9F721E0A0E0B1E0CE
S113009001C01D92A930B207E1F70E94AD000C9493
S11300A0C2010C94000097B19F7C97B9880F80938C
S11300B0BA0085E48093BC00089588B18D7F88B927
S11300C08AE08A95F1F700C088B1826088B985E337
S11300D08A95F1F7000088B18D7F88B908958AB1B7
S11300E082608AB98AB18E7F8AB91092C00088E989
S11300F08093C10086E08093C20087E690E09093ED
S1130100C5008093C4000895F8948AB184608AB9C4
S11301108BB18B7F8BB98AB180688AB987B18260D1
S113012087B987B18E7F87B988B18D7F88B9E8E6B2
S1130130F0E0808182608083ECE6F0E08081816081
S113014080831092800082E08093810080E30E948B
S113015053000E946F00789408950E948400809157
S11301600801823529F489B1846089B910920801A3
S113017080910501811103C00E945D00F0CF809140
S113018084009091850090930701809306019695D1
S11301908795A0E0B0E08093000190930101A093C3
S11301A00201B0930301893A9146A105B105B8F261
S11301B088EA91E6A0E0B0E0809300019093010109
S11301C0A0930201B0930301CACF1F920F920FB6FE
S11301D00F9211242F933F934F935F936F937F93C9
S11301E08F939F93AF93BF93EF93FF938BB18068EB
S11301F08BB9309B07C0109285001092840081E077
S11302008093050180910501882311F1209100015B
S1130210309101014091020150910301AFEFB0E030
S11302200E94B70128EA31E640E050E00E948601CE
S11302302093040110920501109207011092060107
S11302401092000110920101109202011092030118
S1130250FF91EF91BF91AF919F918F917F916F919A
S11302605F914F913F912F910F900FBE0F901F9070
S113027018951F920F920FB60F9211248F93EF933C
S1130280FF938091B9008C7F803A89F158F48037CC
S1130290A1F018F4803689F02EC0803891F08039AE
S11302A081F029C0883BA9F018F4883A91F023C062
S11302B0803CB9F0883CA9F01EC085EC8093BC005A
S11302C01DC08091BB008093080185EC8093BC0025
S11302D015C0809104018093BB0085EC8093BC0021
S11302E00DC0ECEBF0E0108285E4808307C085EC60
S11302F08093BC0003C085EC8093BC00FF91EF9118
S11303008F910F900FBE0F901F901895A1E21A2E97
S1130310AA1BBB1BFD010DC0AA1FBB1FEE1FFF1FA5
S1130320A217B307E407F50720F0A21BB30BE40BF5
S1130330F50B661F771F881F991F1A9469F760953C
S11303407095809590959B01AC01BD01CF010895F6
S1130350A29FB001B39FC001A39F700D811D112402
S1130360911DB29F700D811D1124911D08950E944D
S1130370A801A59F900DB49F900DA49F800D911D81
S10B038011240895F894FFCF45
S9030000FC
